:020000040000FA
:100000000C945D000C9485000C9485000C94850084
:100010000C9485000C9485000C9485000C9485004C
:100020000C9485000C9485000C9485000C945F035F
:100030000C9485000C9485000C9485000C9485002C
:100040000C94BD020C9485000C942D030C940703B2
:100050000C9485000C9485000C9485000C9485000C
:100060000C9485000C9485000000000024002700FB
:100070002A0000000000250028002B0004040404CE
:100080000404040402020202020203030303030342
:10009000010204081020408001020408102001021F
:1000A00004081020000000080002010000030407FB
:1000B00000000000000000001B0411241FBECFEF51
:1000C000D8E0DEBFCDBF11E0A0E0B1E0EEEFFBE095
:1000D00002C005900D92A432B107D9F721E0A4E245
:1000E000B1E001C01D92A33FB207E1F710E0CDE5FA
:1000F000D0E004C02197FE010E94F705CC35D1075E
:10010000C9F70E9478040C94FD050C9400008F92AE
:100110009F92AF92BF92FF920F931F93CF93DF9363
:10012000F090F0012BE02F1508F44CC02091F20163
:1001300008E512E0021B110927FD1395000F111F9E
:10014000000F111F2091F101C8E8D0E0C21BD109B6
:1001500027FDD395CC0FDD1FCC0FDD1F4E010D2EDB
:10016000000CAA08BB089801012E000C440B550B8B
:10017000281939094A095B09DC010E94B20524EB00
:1001800030E040E050E00E948805820E931EA41EDD
:10019000B51E8C169D062CF0E801801691060CF415
:1001A000E4012297CC0FDD1F2FB7F8948F2D90E03C
:1001B000FC01EE0FFF1FE80FF91FE553FE4FD2833E
:1001C000C1832FBFDF91CF911F910F91FF90BF90FF
:1001D000AF909F908F90089590E0FC01EC55FF4FF9
:1001E0002491FC01E057FF4F3491FC01E458FF4F8C
:1001F000E491EE23C9F0222339F0233001F1A8F471
:10020000213019F1223029F1F0E0EE0FFF1FEE58F6
:10021000FF4FA591B4918FB7F894EC91611126C06E
:1002200030953E233C938FBF08952730A9F02830A6
:10023000C9F0243049F7809180008F7D03C0809100
:1002400080008F7780938000DFCF84B58F7784BD67
:10025000DBCF84B58F7DFBCF8091B0008F7780930B
:10026000B000D2CF8091B0008F7DF9CF3E2BDACF96
:100270003FB7F89480912A0190912B01A0912C0115
:10028000B0912D0126B5A89B05C02F3F19F001960E
:10029000A11DB11D3FBFBA2FA92F982F8827BC01E0
:1002A000CD01620F711D811D911D42E0660F771F08
:1002B000881F991F4A95D1F708958F929F92AF9208
:1002C000BF92CF92DF92EF92FF920E9438014B01D2
:1002D0005C0188EEC82E83E0D82EE12CF12C0E9420
:1002E0003801681979098A099B09683E73408105BC
:1002F0009105A8F321E0C21AD108E108F10888EEBF
:10030000880E83E0981EA11CB11CC114D104E10425
:10031000F10429F7FF90EF90DF90CF90BF90AF905E
:100320009F908F900895AF92BF92CF92DF92EF92FD
:10033000FF920F931F93CF93DF936C017B018B018F
:10034000040F151FEB015E01AE18BF08C017D107DF
:1003500059F06991D601ED91FC910190F081E02D69
:10036000C6010995892B79F7C501DF91CF911F91BE
:100370000F91FF90EF90DF90CF90BF90AF900895D6
:10038000FC01538D448D252F30E0842F90E0821B9B
:10039000930B541710F0CF96089501970895FC0120
:1003A000918D828D981761F0A28DAE0FBF2FB11D78
:1003B0005D968C91928D9F5F9F73928F90E00895D0
:1003C0008FEF9FEF0895FC01918D828D981731F08A
:1003D000828DE80FF11D858D90E008958FEF9FEFDE
:1003E0000895FC01918D228D892F90E0805C9F4FB4
:1003F000821B91098F73992708958EE291E00E94E4
:10040000F10121E0892B09F420E0822F089580E09A
:1004100090E0892B29F00E94FD0181110C940000CD
:100420000895FC01A48DA80FB92FB11DA35ABF4F89
:100430002C91848D90E001968F739927848FA689E3
:10044000B7892C93A089B1898C91837080648C9337
:10045000938D848D981306C00288F389E02D8081E6
:100460008F7D80830895EF92FF920F931F93CF9318
:10047000DF93EC0181E0888F9B8D8C8D98131AC0DF
:10048000E889F989808185FF15C09FB7F894EE89C6
:10049000FF896083E889F989808183708064808323
:1004A0009FBF81E090E0DF91CF911F910F91FF906E
:1004B000EF900895F62E0B8D10E00F5F1F4F0F7316
:1004C0001127E02E8C8D8E110CC00FB607FCFACFD1
:1004D000E889F989808185FFF5CFCE010E9411025C
:1004E000F1CFEB8DEC0FFD2FF11DE35AFF4FF082A2
:1004F0009FB7F8940B8FEA89FB8980818062CFCF08
:10050000CF93DF93EC01888D8823B9F0AA89BB894A
:10051000E889F9898C9185FD03C0808186FD0DC035
:100520000FB607FCF7CF8C9185FFF2CF808185FF56
:10053000EDCFCE010E941102E9CFDF91CF91089556
:10054000CF93DF93FC0101900020E9F73197AF01D1
:10055000481B590BBC018EE291E00E949301EC0113
:1005600042E050E062E171E08EE291E00E9493018E
:100570008C0F9D1FDF91CF9108951F920F920FB6A0
:100580000F9211242F933F938F939F93AF93BF9319
:100590008091260190912701A0912801B091290115
:1005A0003091250123E0230F2D3758F50196A11D29
:1005B000B11D209325018093260190932701A093DC
:1005C0002801B093290180912A0190912B01A091DB
:1005D0002C01B0912D010196A11DB11D80932A011E
:1005E00090932B01A0932C01B0932D01BF91AF915B
:1005F0009F918F913F912F910F900FBE0F901F9061
:10060000189526E8230F0296A11DB11DD2CF1F9287
:100610000F920FB60F9211242F933F934F935F9336
:100620006F937F938F939F93AF93BF93EF93FF93BA
:100630008EE291E00E941102FF91EF91BF91AF9184
:100640009F918F917F916F915F914F913F912F91EA
:100650000F900FBE0F901F9018951F920F920FB61C
:100660000F9211242F938F939F93EF93FF93E09119
:100670003E01F0913F018081E0914401F0914501FC
:1006800082FD1BC09081809147018F5F8F73209105
:100690004801821741F0E0914701F0E0E25DFE4F32
:1006A000958F80934701FF91EF919F918F912F91AB
:1006B0000F900FBE0F901F9018958081F4CF1F925E
:1006C0000F920FB60F9211242F933F934F935F9386
:1006D0006F937F938F939F93AF93BF93CF93DF934A
:1006E000EF93FF9380912401C091EF01D0E087FF49
:1006F00024C01092850010928400809124018F5FA5
:100700008093240180912401082E000C990B8C17F2
:100710009D0724F4809124018C30C4F180918400E1
:1007200090918500049680349C4908F47AC08091A9
:10073000840090918500049676C080912401082E53
:10074000000C990B8C179D07C4F6E09124018E2FA5
:10075000EE0F990BFC01EE0FFF1FE80FF91FE55399
:10076000FE4F808186FFC9CFE09124018E2FEE0FCE
:10077000990BFC01EE0FFF1FE80FF91FE553FE4F29
:10078000808160E08F730E94EC00B7CF20918400DD
:1007900030918500E09124018E2FEE0F990BFC0122
:1007A000EE0FFF1FE80FF91FE553FE4F8181928185
:1007B000820F931F9093890080938800E091240119
:1007C0008E2FEE0F990BFC01EE0FFF1FE80FF91FA4
:1007D000E553FE4F808186FF11C0E09124018E2FEA
:1007E000EE0F990BFC01EE0FFF1FE80FF91FE55309
:1007F000FE4F808161E08F730E94EC00FF91EF91CA
:10080000DF91CF91BF91AF919F918F917F916F9128
:100810005F914F913F912F910F900FBE0F901F90BE
:10082000189580E49CE990938900809388008FEF6D
:1008300080932401E3CF109231011092300188EEB1
:1008400093E0A0E0B0E08093320190933301A09355
:100850003401B093350184E091E090932F018093AF
:100860002E0185EC90E090933B0180933A0184EC5B
:1008700090E090933D0180933C0180EC90E0909358
:100880003F0180933E0181EC90E090934101809381
:10089000400182EC90E0909343018093420186EC0A
:1008A00090E090934501809344011092470110928B
:1008B00048011092490110924A018091EF018C3059
:1008C00098F491E0980F9093EF018093F00190E0FD
:1008D000FC01EE0FFF1FE80FF91FE553FE4F88EBF9
:1008E0009BE09283818308958FEF8093F0010895B8
:1008F000789484B5826084BD84B5816084BD85B5FB
:10090000826085BD85B5816085BD80916E00816006
:1009100080936E00109281008091810082608093AC
:1009200081008091810081608093810080918000AE
:100930008160809380008091B10084608093B100D9
:100940008091B00081608093B00080917A008460D3
:1009500080937A0080917A00826080937A008091FF
:100960007A00816080937A0080917A008068809319
:100970007A001092C100E0913E01F0913F0182E0C7
:100980008083E0913A01F0913B011082E0913C01BB
:10099000F0913D018FEC808310924601E09142017D
:1009A000F091430186E08083E0914001F0914101A4
:1009B000808180618083E0914001F09141018081DC
:1009C00088608083E0914001F091410180818068DE
:1009D0008083E0914001F091410180818F7D80838F
:1009E00085E191E00E94A0028091F0018C3008F036
:1009F00068C0E8E9F0E02491E4E8F0E0849188231D
:100A000099F090E0880F991FFC01E859FF4FA591DC
:100A1000B491FC01EE58FF4F859194918FB7F894F3
:100A2000EC91E22BEC938FBF8091F001282F30E006
:100A3000F901EE0FFF1FE20FF31FE553FE4F908108
:100A4000907C986090831092F1011092F2012CE05A
:100A5000622F0E94EB05829FB001112430E020E05C
:100A6000AB01420F531FFA01EE0FFF1FE40FF51FFA
:100A7000E553FE4F908196FD16C02F5F3F4F2C30FF
:100A8000310571F781110FC01092800082E08093D0
:100A900081001092850010928400B19A80916F00BD
:100AA000826080936F00E091F0018E2F90E0FC0156
:100AB000EE0FFF1FE80FF91FE553FE4F80818064A2
:100AC000808390E080E00E94870088E191E00E94AE
:100AD000A002C0E0D0E090E080E00E94870088E1C2
:100AE00091E00E94A0020E945D0184EB90E00E94D0
:100AF00087008EE191E00E94A0020E945D01209794
:100B000051F30E94FD01882331F30E940000E3CFDE
:100B1000052E97FB1EF400940E949F0557FD07D0F9
:100B20000E94BA0507FC03D04EF40C949F05509523
:100B30004095309521953F4F4F4F5F4F08959095C9
:100B40008095709561957F4F8F4F9F4F08950E94BC
:100B5000DC05A59F900DB49F900DA49F800D911D65
:100B600011240895B7FF0C94A7050E94A705821BC6
:100B7000930B0895A1E21A2EAA1BBB1BFD010DC009
:100B8000AA1FBB1FEE1FFF1FA217B307E407F5073D
:100B900020F0A21BB30BE40BF50B661F771F881F19
:100BA000991F1A9469F760957095809590959B01AF
:100BB000AC01BD01CF010895A29FB001B39FC00158
:100BC000A39F700D811D1124911DB29F700D811D79
:100BD0001124911D0895991B79E004C0991F96175F
:100BE00008F0961B881F7A95C9F780950895EE0F37
:100BF000FF1F0590F491E02D0994F894FFCF0000B9
:100C0000000033029301C0018002F101CF01E30132
:100C10000D0A00486900436C6F7365004F70656E84
:020C20000000D2
:107E0000112484B714BE81FFF0D085E080938100F7
:107E100082E08093C00088E18093C10086E0809377
:107E2000C20080E18093C4008EE0C9D0259A86E02C
:107E300020E33CEF91E0309385002093840096BBD3
:107E4000B09BFECF1D9AA8958150A9F7CC24DD24C4
:107E500088248394B5E0AB2EA1E19A2EF3E0BF2EE7
:107E6000A2D0813461F49FD0082FAFD0023811F036
:107E7000013811F484E001C083E08DD089C08234E0
:107E800011F484E103C0853419F485E0A6D080C0E4
:107E9000853579F488D0E82EFF2485D0082F10E0AE
:107EA000102F00270E291F29000F111F8ED06801E7
:107EB0006FC0863521F484E090D080E0DECF843638
:107EC00009F040C070D06FD0082F6DD080E0C81688
:107ED00080E7D80618F4F601B7BEE895C0E0D1E017
:107EE00062D089930C17E1F7F0E0CF16F0E7DF06D8
:107EF00018F0F601B7BEE89568D007B600FCFDCFD4
:107F0000A601A0E0B1E02C9130E011968C91119780
:107F100090E0982F8827822B932B1296FA010C0160
:107F200087BEE89511244E5F5F4FF1E0A038BF0790
:107F300051F7F601A7BEE89507B600FCFDCF97BE46
:107F4000E89526C08437B1F42ED02DD0F82E2BD052
:107F50003CD0F601EF2C8F010F5F1F4F84911BD097
:107F6000EA94F801C1F70894C11CD11CFA94CF0C13
:107F7000D11C0EC0853739F428D08EE10CD085E9AC
:107F80000AD08FE07ACF813511F488E018D01DD067
:107F900080E101D065CF982F8091C00085FFFCCF94
:107FA0009093C60008958091C00087FFFCCF809118
:107FB000C00084FD01C0A8958091C6000895E0E648
:107FC000F0E098E1908380830895EDDF803219F02E
:107FD00088E0F5DFFFCF84E1DECF1F93182FE3DFCA
:107FE0001150E9F7F2DF1F91089580E0E8DFEE27F6
:047FF000FF270994CA
:027FFE00040479
:00000001FF
